:020000042000DA
:200000000180000031504558000301001D0000203300002057000020A10000203E490022CC
:200020000B691B0603D53D4B4B603D4B4B6042707047704738490420CA68D20701D001202B
:200040007047CA68D20601D502207047C9684907FBD503207047F8B50746456831481B21A9
:20006000012628180903884218D22F4800F03FF8042813D1284C20690221084320616561F9
:200080002069402108432061274800F030F8226902218A432261042800D100267E70F8BD5F
:2000A000F8B5044646681F481B2101273018090388421AD2A068022817D8002815D01A4836
:2000C00000F015F8042810D1E068134D008829690122114329613080134800F008F82969C6
:2000E000B9432961042800D100276770F8BD70B50446FFF79FFF0D4D0D4E03E0FFF79AFFA0
:200100003560641E012803D0002C00D1052070BD002CF3D1FAE7000000200240230167457A
:14012000AB89EFCD00B0FFF710270000AAAA0000003000403A
:00000001FF
